{
  "_format": "hh-sol-artifact-1",
  "contractName": "MyEpicNFT",
  "sourceName": "contracts/MyEpicNFT.sol",
  "abi": [
    {
      "inputs": [],
      "stateMutability": "nonpayable",
      "type": "constructor"
    },
    {
      "anonymous": false,
      "inputs": [
        {
          "indexed": true,
          "internalType": "address",
          "name": "owner",
          "type": "address"
        },
        {
          "indexed": true,
          "internalType": "address",
          "name": "approved",
          "type": "address"
        },
        {
          "indexed": true,
          "internalType": "uint256",
          "name": "tokenId",
          "type": "uint256"
        }
      ],
      "name": "Approval",
      "type": "event"
    },
    {
      "anonymous": false,
      "inputs": [
        {
          "indexed": true,
          "internalType": "address",
          "name": "owner",
          "type": "address"
        },
        {
          "indexed": true,
          "internalType": "address",
          "name": "operator",
          "type": "address"
        },
        {
          "indexed": false,
          "internalType": "bool",
          "name": "approved",
          "type": "bool"
        }
      ],
      "name": "ApprovalForAll",
      "type": "event"
    },
    {
      "anonymous": false,
      "inputs": [
        {
          "indexed": true,
          "internalType": "address",
          "name": "from",
          "type": "address"
        },
        {
          "indexed": true,
          "internalType": "address",
          "name": "to",
          "type": "address"
        },
        {
          "indexed": true,
          "internalType": "uint256",
          "name": "tokenId",
          "type": "uint256"
        }
      ],
      "name": "Transfer",
      "type": "event"
    },
    {
      "inputs": [
        {
          "internalType": "address",
          "name": "to",
          "type": "address"
        },
        {
          "internalType": "uint256",
          "name": "tokenId",
          "type": "uint256"
        }
      ],
      "name": "approve",
      "outputs": [],
      "stateMutability": "nonpayable",
      "type": "function"
    },
    {
      "inputs": [
        {
          "internalType": "address",
          "name": "owner",
          "type": "address"
        }
      ],
      "name": "balanceOf",
      "outputs": [
        {
          "internalType": "uint256",
          "name": "",
          "type": "uint256"
        }
      ],
      "stateMutability": "view",
      "type": "function"
    },
    {
      "inputs": [
        {
          "internalType": "uint256",
          "name": "tokenId",
          "type": "uint256"
        }
      ],
      "name": "getApproved",
      "outputs": [
        {
          "internalType": "address",
          "name": "",
          "type": "address"
        }
      ],
      "stateMutability": "view",
      "type": "function"
    },
    {
      "inputs": [
        {
          "internalType": "address",
          "name": "owner",
          "type": "address"
        },
        {
          "internalType": "address",
          "name": "operator",
          "type": "address"
        }
      ],
      "name": "isApprovedForAll",
      "outputs": [
        {
          "internalType": "bool",
          "name": "",
          "type": "bool"
        }
      ],
      "stateMutability": "view",
      "type": "function"
    },
    {
      "inputs": [],
      "name": "makeAnEpicNFT",
      "outputs": [],
      "stateMutability": "nonpayable",
      "type": "function"
    },
    {
      "inputs": [],
      "name": "name",
      "outputs": [
        {
          "internalType": "string",
          "name": "",
          "type": "string"
        }
      ],
      "stateMutability": "view",
      "type": "function"
    },
    {
      "inputs": [
        {
          "internalType": "uint256",
          "name": "tokenId",
          "type": "uint256"
        }
      ],
      "name": "ownerOf",
      "outputs": [
        {
          "internalType": "address",
          "name": "",
          "type": "address"
        }
      ],
      "stateMutability": "view",
      "type": "function"
    },
    {
      "inputs": [
        {
          "internalType": "address",
          "name": "from",
          "type": "address"
        },
        {
          "internalType": "address",
          "name": "to",
          "type": "address"
        },
        {
          "internalType": "uint256",
          "name": "tokenId",
          "type": "uint256"
        }
      ],
      "name": "safeTransferFrom",
      "outputs": [],
      "stateMutability": "nonpayable",
      "type": "function"
    },
    {
      "inputs": [
        {
          "internalType": "address",
          "name": "from",
          "type": "address"
        },
        {
          "internalType": "address",
          "name": "to",
          "type": "address"
        },
        {
          "internalType": "uint256",
          "name": "tokenId",
          "type": "uint256"
        },
        {
          "internalType": "bytes",
          "name": "_data",
          "type": "bytes"
        }
      ],
      "name": "safeTransferFrom",
      "outputs": [],
      "stateMutability": "nonpayable",
      "type": "function"
    },
    {
      "inputs": [
        {
          "internalType": "address",
          "name": "operator",
          "type": "address"
        },
        {
          "internalType": "bool",
          "name": "approved",
          "type": "bool"
        }
      ],
      "name": "setApprovalForAll",
      "outputs": [],
      "stateMutability": "nonpayable",
      "type": "function"
    },
    {
      "inputs": [
        {
          "internalType": "bytes4",
          "name": "interfaceId",
          "type": "bytes4"
        }
      ],
      "name": "supportsInterface",
      "outputs": [
        {
          "internalType": "bool",
          "name": "",
          "type": "bool"
        }
      ],
      "stateMutability": "view",
      "type": "function"
    },
    {
      "inputs": [],
      "name": "symbol",
      "outputs": [
        {
          "internalType": "string",
          "name": "",
          "type": "string"
        }
      ],
      "stateMutability": "view",
      "type": "function"
    },
    {
      "inputs": [
        {
          "internalType": "uint256",
          "name": "tokenId",
          "type": "uint256"
        }
      ],
      "name": "tokenURI",
      "outputs": [
        {
          "internalType": "string",
          "name": "",
          "type": "string"
        }
      ],
      "stateMutability": "view",
      "type": "function"
    },
    {
      "inputs": [
        {
          "internalType": "address",
          "name": "from",
          "type": "address"
        },
        {
          "internalType": "address",
          "name": "to",
          "type": "address"
        },
        {
          "internalType": "uint256",
          "name": "tokenId",
          "type": "uint256"
        }
      ],
      "name": "transferFrom",
      "outputs": [],
      "stateMutability": "nonpayable",
      "type": "function"
    }
  ],
  "bytecode": "0x60806040523480156200001157600080fd5b506040518060400160405280600981526020017f546f6e79537461726b00000000000000000000000000000000000000000000008152506040518060400160405280600581526020017f535441524b000000000000000000000000000000000000000000000000000000815250816000908051906020019062000096929190620001cf565b508060019080519060200190620000af929190620001cf565b505050620000fd6040518060400160405280601881526020017f546f6e7920537461726b204c6976696e67204c617669736800000000000000008152506200010360201b62000b391760201c565b620003ac565b620001a3816040516024016200011a9190620002c0565b6040516020818303038152906040527f41304fac000000000000000000000000000000000000000000000000000000007bffffffffffffffffffffffffffffffffffffffffffffffffffffffff19166020820180517bffffffffffffffffffffffffffffffffffffffffffffffffffffffff8381831617835250505050620001a660201b60201c565b50565b60008151905060006a636f6e736f6c652e6c6f679050602083016000808483855afa5050505050565b828054620001dd9062000336565b90600052602060002090601f0160209004810192826200020157600085556200024d565b82601f106200021c57805160ff19168380011785556200024d565b828001600101855582156200024d579182015b828111156200024c5782518255916020019190600101906200022f565b5b5090506200025c919062000260565b5090565b5b808211156200027b57600081600090555060010162000261565b5090565b60006200028c82620002e4565b620002988185620002ef565b9350620002aa81856020860162000300565b620002b5816200039b565b840191505092915050565b60006020820190508181036000830152620002dc81846200027f565b905092915050565b600081519050919050565b600082825260208201905092915050565b60005b838110156200032057808201518184015260208101905062000303565b8381111562000330576000848401525b50505050565b600060028204905060018216806200034f57607f821691505b602082108114156200036657620003656200036c565b5b50919050565b7f4e487b7100000000000000000000000000000000000000000000000000000000600052602260045260246000fd5b6000601f19601f8301169050919050565b612e1e80620003bc6000396000f3fe608060405234801561001057600080fd5b50600436106100ea5760003560e01c806370a082311161008c578063b88d4fde11610066578063b88d4fde1461025b578063c87b56dd14610277578063de9d132f146102a7578063e985e9c5146102b1576100ea565b806370a08231146101f157806395d89b4114610221578063a22cb4651461023f576100ea565b8063095ea7b3116100c8578063095ea7b31461016d57806323b872dd1461018957806342842e0e146101a55780636352211e146101c1576100ea565b806301ffc9a7146100ef57806306fdde031461011f578063081812fc1461013d575b600080fd5b61010960048036038101906101049190611d74565b6102e1565b604051610116919061217a565b60405180910390f35b6101276103c3565b6040516101349190612195565b60405180910390f35b61015760048036038101906101529190611dc6565b610455565b6040516101649190612113565b60405180910390f35b61018760048036038101906101829190611d38565b6104da565b005b6101a3600480360381019061019e9190611c32565b6105f2565b005b6101bf60048036038101906101ba9190611c32565b610652565b005b6101db60048036038101906101d69190611dc6565b610672565b6040516101e89190612113565b60405180910390f35b61020b60048036038101906102069190611bcd565b610724565b60405161021891906123f5565b60405180910390f35b6102296107dc565b6040516102369190612195565b60405180910390f35b61025960048036038101906102549190611cfc565b61086e565b005b61027560048036038101906102709190611c81565b610884565b005b610291600480360381019061028c9190611dc6565b6108e6565b60405161029e9190612195565b60405180910390f35b6102af610a38565b005b6102cb60048036038101906102c69190611bf6565b610aa5565b6040516102d8919061217a565b60405180910390f35b60007f80ac58cd000000000000000000000000000000000000000000000000000000007bffffffffffffffffffffffffffffffffffffffffffffffffffffffff1916827bffffffffffffffffffffffffffffffffffffffffffffffffffffffff191614806103ac57507f5b5e139f000000000000000000000000000000000000000000000000000000007bffffffffffffffffffffffffffffffffffffffffffffffffffffffff1916827bffffffffffffffffffffffffffffffffffffffffffffffffffffffff1916145b806103bc57506103bb82610bd2565b5b9050919050565b6060600080546103d29061261a565b80601f01602080910402602001604051908101604052809291908181526020018280546103fe9061261a565b801561044b5780601f106104205761010080835404028352916020019161044b565b820191906000526020600020905b81548152906001019060200180831161042e57829003601f168201915b5050505050905090565b600061046082610c3c565b61049f576040517f08c379a000000000000000000000000000000000000000000000000000000000815260040161049690612375565b60405180910390fd5b6004600083815260200190815260200160002060009054906101000a900473ffffffffffffffffffffffffffffffffffffffff169050919050565b60006104e582610672565b90508073ffffffffffffffffffffffffffffffffffffffff168373ffffffffffffffffffffffffffffffffffffffff161415610556576040517f08c379a000000000000000000000000000000000000000000000000000000000815260040161054d906123b5565b60405180910390fd5b8073ffffffffffffffffffffffffffffffffffffffff16610575610ca8565b73ffffffffffffffffffffffffffffffffffffffff1614806105a457506105a38161059e610ca8565b610aa5565b5b6105e3576040517f08c379a00000000000000000000000000000000000000000000000000000000081526004016105da906122b5565b60405180910390fd5b6105ed8383610cb0565b505050565b6106036105fd610ca8565b82610d69565b610642576040517f08c379a0000000000000000000000000000000000000000000000000000000008152600401610639906123d5565b60405180910390fd5b61064d838383610e47565b505050565b61066d83838360405180602001604052806000815250610884565b505050565b6000806002600084815260200190815260200160002060009054906101000a900473ffffffffffffffffffffffffffffffffffffffff169050600073ffffffffffffffffffffffffffffffffffffffff168173ffffffffffffffffffffffffffffffffffffffff16141561071b576040517f08c379a0000000000000000000000000000000000000000000000000000000008152600401610712906122f5565b60405180910390fd5b80915050919050565b60008073ffffffffffffffffffffffffffffffffffffffff168273ffffffffffffffffffffffffffffffffffffffff161415610795576040517f08c379a000000000000000000000000000000000000000000000000000000000815260040161078c906122d5565b60405180910390fd5b600360008373ffffffffffffffffffffffffffffffffffffffff1673ffffffffffffffffffffffffffffffffffffffff168152602001908152602001600020549050919050565b6060600180546107eb9061261a565b80601f01602080910402602001604051908101604052809291908181526020018280546108179061261a565b80156108645780601f1061083957610100808354040283529160200191610864565b820191906000526020600020905b81548152906001019060200180831161084757829003601f168201915b5050505050905090565b610880610879610ca8565b83836110ae565b5050565b61089561088f610ca8565b83610d69565b6108d4576040517f08c379a00000000000000000000000000000000000000000000000000000000081526004016108cb906123d5565b60405180910390fd5b6108e08484848461121b565b50505050565b60606108f182610c3c565b610930576040517f08c379a000000000000000000000000000000000000000000000000000000000815260040161092790612355565b60405180910390fd5b60006006600084815260200190815260200160002080546109509061261a565b80601f016020809104026020016040519081016040528092919081815260200182805461097c9061261a565b80156109c95780601f1061099e576101008083540402835291602001916109c9565b820191906000526020600020905b8154815290600101906020018083116109ac57829003601f168201915b5050505050905060006109da611277565b90506000815114156109f0578192505050610a33565b600082511115610a25578082604051602001610a0d9291906120ef565b60405160208183030381529060405292505050610a33565b610a2e8461128e565b925050505b919050565b6000610a446007611335565b9050610a503382611343565b610a75816040518061016001604052806101258152602001612cc46101259139611361565b610a98604051806060016040528060258152602001612c9f6025913982336113d5565b610aa26007611474565b50565b6000600560008473ffffffffffffffffffffffffffffffffffffffff1673ffffffffffffffffffffffffffffffffffffffff16815260200190815260200160002060008373ffffffffffffffffffffffffffffffffffffffff1673ffffffffffffffffffffffffffffffffffffffff16815260200190815260200160002060009054906101000a900460ff16905092915050565b610bcf81604051602401610b4d9190612195565b6040516020818303038152906040527f41304fac000000000000000000000000000000000000000000000000000000007bffffffffffffffffffffffffffffffffffffffffffffffffffffffff19166020820180517bffffffffffffffffffffffffffffffffffffffffffffffffffffffff838183161783525050505061148a565b50565b60007f01ffc9a7000000000000000000000000000000000000000000000000000000007bffffffffffffffffffffffffffffffffffffffffffffffffffffffff1916827bffffffffffffffffffffffffffffffffffffffffffffffffffffffff1916149050919050565b60008073ffffffffffffffffffffffffffffffffffffffff166002600084815260200190815260200160002060009054906101000a900473ffffffffffffffffffffffffffffffffffffffff1673ffffffffffffffffffffffffffffffffffffffff1614159050919050565b600033905090565b816004600083815260200190815260200160002060006101000a81548173ffffffffffffffffffffffffffffffffffffffff021916908373ffffffffffffffffffffffffffffffffffffffff160217905550808273ffffffffffffffffffffffffffffffffffffffff16610d2383610672565b73ffffffffffffffffffffffffffffffffffffffff167f8c5be1e5ebec7d5bd14f71427d1e84f3dd0314c0f7b2291e5b200ac8c7c3b92560405160405180910390a45050565b6000610d7482610c3c565b610db3576040517f08c379a0000000000000000000000000000000000000000000000000000000008152600401610daa90612295565b60405180910390fd5b6000610dbe83610672565b90508073ffffffffffffffffffffffffffffffffffffffff168473ffffffffffffffffffffffffffffffffffffffff161480610e005750610dff8185610aa5565b5b80610e3e57508373ffffffffffffffffffffffffffffffffffffffff16610e2684610455565b73ffffffffffffffffffffffffffffffffffffffff16145b91505092915050565b8273ffffffffffffffffffffffffffffffffffffffff16610e6782610672565b73ffffffffffffffffffffffffffffffffffffffff1614610ebd576040517f08c379a0000000000000000000000000000000000000000000000000000000008152600401610eb490612215565b60405180910390fd5b600073ffffffffffffffffffffffffffffffffffffffff168273ffffffffffffffffffffffffffffffffffffffff161415610f2d576040517f08c379a0000000000000000000000000000000000000000000000000000000008152600401610f2490612255565b60405180910390fd5b610f388383836114b3565b610f43600082610cb0565b6001600360008573ffffffffffffffffffffffffffffffffffffffff1673ffffffffffffffffffffffffffffffffffffffff1681526020019081526020016000206000828254610f939190612530565b925050819055506001600360008473ffffffffffffffffffffffffffffffffffffffff1673ffffffffffffffffffffffffffffffffffffffff1681526020019081526020016000206000828254610fea91906124a9565b92505081905550816002600083815260200190815260200160002060006101000a81548173ffffffffffffffffffffffffffffffffffffffff021916908373ffffffffffffffffffffffffffffffffffffffff160217905550808273ffffffffffffffffffffffffffffffffffffffff168473ffffffffffffffffffffffffffffffffffffffff167fddf252ad1be2c89b69c2b068fc378daa952ba7f163c4a11628f55a4df523b3ef60405160405180910390a46110a98383836114b8565b505050565b8173ffffffffffffffffffffffffffffffffffffffff168373ffffffffffffffffffffffffffffffffffffffff16141561111d576040517f08c379a000000000000000000000000000000000000000000000000000000000815260040161111490612275565b60405180910390fd5b80600560008573ffffffffffffffffffffffffffffffffffffffff1673ffffffffffffffffffffffffffffffffffffffff16815260200190815260200160002060008473ffffffffffffffffffffffffffffffffffffffff1673ffffffffffffffffffffffffffffffffffffffff16815260200190815260200160002060006101000a81548160ff0219169083151502179055508173ffffffffffffffffffffffffffffffffffffffff168373ffffffffffffffffffffffffffffffffffffffff167f17307eab39ab6107e8899845ad3d59bd9653f200f220920489ca2b5937696c318360405161120e919061217a565b60405180910390a3505050565b611226848484610e47565b611232848484846114bd565b611271576040517f08c379a0000000000000000000000000000000000000000000000000000000008152600401611268906121f5565b60405180910390fd5b50505050565b606060405180602001604052806000815250905090565b606061129982610c3c565b6112d8576040517f08c379a00000000000000000000000000000000000000000000000000000000081526004016112cf90612395565b60405180910390fd5b60006112e2611277565b90506000815111611302576040518060200160405280600081525061132d565b8061130c84611654565b60405160200161131d9291906120ef565b6040516020818303038152906040525b915050919050565b600081600001549050919050565b61135d828260405180602001604052806000815250611801565b5050565b61136a82610c3c565b6113a9576040517f08c379a00000000000000000000000000000000000000000000000000000000081526004016113a090612315565b60405180910390fd5b806006600084815260200190815260200160002090805190602001906113d0929190611a59565b505050565b61146f8383836040516024016113ed939291906121b7565b6040516020818303038152906040527fe3849f79000000000000000000000000000000000000000000000000000000007bffffffffffffffffffffffffffffffffffffffffffffffffffffffff19166020820180517bffffffffffffffffffffffffffffffffffffffffffffffffffffffff838183161783525050505061148a565b505050565b6001816000016000828254019250508190555050565b60008151905060006a636f6e736f6c652e6c6f679050602083016000808483855afa5050505050565b505050565b505050565b60006114de8473ffffffffffffffffffffffffffffffffffffffff1661185c565b15611647578373ffffffffffffffffffffffffffffffffffffffff1663150b7a02611507610ca8565b8786866040518563ffffffff1660e01b8152600401611529949392919061212e565b602060405180830381600087803b15801561154357600080fd5b505af192505050801561157457506040513d601f19601f820116820180604052508101906115719190611d9d565b60015b6115f7573d80600081146115a4576040519150601f19603f3d011682016040523d82523d6000602084013e6115a9565b606091505b506000815114156115ef576040517f08c379a00000000000000000000000000000000000000000000000000000000081526004016115e6906121f5565b60405180910390fd5b805181602001fd5b63150b7a0260e01b7bffffffffffffffffffffffffffffffffffffffffffffffffffffffff1916817bffffffffffffffffffffffffffffffffffffffffffffffffffffffff19161491505061164c565b600190505b949350505050565b6060600082141561169c576040518060400160405280600181526020017f300000000000000000000000000000000000000000000000000000000000000081525090506117fc565b600082905060005b600082146116ce5780806116b79061267d565b915050600a826116c791906124ff565b91506116a4565b60008167ffffffffffffffff811115611710577f4e487b7100000000000000000000000000000000000000000000000000000000600052604160045260246000fd5b6040519080825280601f01601f1916602001820160405280156117425781602001600182028036833780820191505090505b5090505b600085146117f55760018261175b9190612530565b9150600a8561176a91906126c6565b603061177691906124a9565b60f81b8183815181106117b2577f4e487b7100000000000000000000000000000000000000000000000000000000600052603260045260246000fd5b60200101907effffffffffffffffffffffffffffffffffffffffffffffffffffffffffffff1916908160001a905350600a856117ee91906124ff565b9450611746565b8093505050505b919050565b61180b838361187f565b61181860008484846114bd565b611857576040517f08c379a000000000000000000000000000000000000000000000000000000000815260040161184e906121f5565b60405180910390fd5b505050565b6000808273ffffffffffffffffffffffffffffffffffffffff163b119050919050565b600073ffffffffffffffffffffffffffffffffffffffff168273ffffffffffffffffffffffffffffffffffffffff1614156118ef576040517f08c379a00000000000000000000000000000000000000000000000000000000081526004016118e690612335565b60405180910390fd5b6118f881610c3c565b15611938576040517f08c379a000000000000000000000000000000000000000000000000000000000815260040161192f90612235565b60405180910390fd5b611944600083836114b3565b6001600360008473ffffffffffffffffffffffffffffffffffffffff1673ffffffffffffffffffffffffffffffffffffffff168152602001908152602001600020600082825461199491906124a9565b92505081905550816002600083815260200190815260200160002060006101000a81548173ffffffffffffffffffffffffffffffffffffffff021916908373ffffffffffffffffffffffffffffffffffffffff160217905550808273ffffffffffffffffffffffffffffffffffffffff16600073ffffffffffffffffffffffffffffffffffffffff167fddf252ad1be2c89b69c2b068fc378daa952ba7f163c4a11628f55a4df523b3ef60405160405180910390a4611a55600083836114b8565b5050565b828054611a659061261a565b90600052602060002090601f016020900481019282611a875760008555611ace565b82601f10611aa057805160ff1916838001178555611ace565b82800160010185558215611ace579182015b82811115611acd578251825591602001919060010190611ab2565b5b509050611adb9190611adf565b5090565b5b80821115611af8576000816000905550600101611ae0565b5090565b6000611b0f611b0a84612435565b612410565b905082815260208101848484011115611b2757600080fd5b611b328482856125d8565b509392505050565b600081359050611b4981612c42565b92915050565b600081359050611b5e81612c59565b92915050565b600081359050611b7381612c70565b92915050565b600081519050611b8881612c70565b92915050565b600082601f830112611b9f57600080fd5b8135611baf848260208601611afc565b91505092915050565b600081359050611bc781612c87565b92915050565b600060208284031215611bdf57600080fd5b6000611bed84828501611b3a565b91505092915050565b60008060408385031215611c0957600080fd5b6000611c1785828601611b3a565b9250506020611c2885828601611b3a565b9150509250929050565b600080600060608486031215611c4757600080fd5b6000611c5586828701611b3a565b9350506020611c6686828701611b3a565b9250506040611c7786828701611bb8565b9150509250925092565b60008060008060808587031215611c9757600080fd5b6000611ca587828801611b3a565b9450506020611cb687828801611b3a565b9350506040611cc787828801611bb8565b925050606085013567ffffffffffffffff811115611ce457600080fd5b611cf087828801611b8e565b91505092959194509250565b60008060408385031215611d0f57600080fd5b6000611d1d85828601611b3a565b9250506020611d2e85828601611b4f565b9150509250929050565b60008060408385031215611d4b57600080fd5b6000611d5985828601611b3a565b9250506020611d6a85828601611bb8565b9150509250929050565b600060208284031215611d8657600080fd5b6000611d9484828501611b64565b91505092915050565b600060208284031215611daf57600080fd5b6000611dbd84828501611b79565b91505092915050565b600060208284031215611dd857600080fd5b6000611de684828501611bb8565b91505092915050565b611df881612564565b82525050565b611e0781612576565b82525050565b6000611e1882612466565b611e22818561247c565b9350611e328185602086016125e7565b611e3b816127b3565b840191505092915050565b6000611e5182612471565b611e5b818561248d565b9350611e6b8185602086016125e7565b611e74816127b3565b840191505092915050565b6000611e8a82612471565b611e94818561249e565b9350611ea48185602086016125e7565b80840191505092915050565b6000611ebd60328361248d565b9150611ec8826127c4565b604082019050919050565b6000611ee060258361248d565b9150611eeb82612813565b604082019050919050565b6000611f03601c8361248d565b9150611f0e82612862565b602082019050919050565b6000611f2660248361248d565b9150611f318261288b565b604082019050919050565b6000611f4960198361248d565b9150611f54826128da565b602082019050919050565b6000611f6c602c8361248d565b9150611f7782612903565b604082019050919050565b6000611f8f60388361248d565b9150611f9a82612952565b604082019050919050565b6000611fb2602a8361248d565b9150611fbd826129a1565b604082019050919050565b6000611fd560298361248d565b9150611fe0826129f0565b604082019050919050565b6000611ff8602e8361248d565b915061200382612a3f565b604082019050919050565b600061201b60208361248d565b915061202682612a8e565b602082019050919050565b600061203e60318361248d565b915061204982612ab7565b604082019050919050565b6000612061602c8361248d565b915061206c82612b06565b604082019050919050565b6000612084602f8361248d565b915061208f82612b55565b604082019050919050565b60006120a760218361248d565b91506120b282612ba4565b604082019050919050565b60006120ca60318361248d565b91506120d582612bf3565b604082019050919050565b6120e9816125ce565b82525050565b60006120fb8285611e7f565b91506121078284611e7f565b91508190509392505050565b60006020820190506121286000830184611def565b92915050565b60006080820190506121436000830187611def565b6121506020830186611def565b61215d60408301856120e0565b818103606083015261216f8184611e0d565b905095945050505050565b600060208201905061218f6000830184611dfe565b92915050565b600060208201905081810360008301526121af8184611e46565b905092915050565b600060608201905081810360008301526121d18186611e46565b90506121e060208301856120e0565b6121ed6040830184611def565b949350505050565b6000602082019050818103600083015261220e81611eb0565b9050919050565b6000602082019050818103600083015261222e81611ed3565b9050919050565b6000602082019050818103600083015261224e81611ef6565b9050919050565b6000602082019050818103600083015261226e81611f19565b9050919050565b6000602082019050818103600083015261228e81611f3c565b9050919050565b600060208201905081810360008301526122ae81611f5f565b9050919050565b600060208201905081810360008301526122ce81611f82565b9050919050565b600060208201905081810360008301526122ee81611fa5565b9050919050565b6000602082019050818103600083015261230e81611fc8565b9050919050565b6000602082019050818103600083015261232e81611feb565b9050919050565b6000602082019050818103600083015261234e8161200e565b9050919050565b6000602082019050818103600083015261236e81612031565b9050919050565b6000602082019050818103600083015261238e81612054565b9050919050565b600060208201905081810360008301526123ae81612077565b9050919050565b600060208201905081810360008301526123ce8161209a565b9050919050565b600060208201905081810360008301526123ee816120bd565b9050919050565b600060208201905061240a60008301846120e0565b92915050565b600061241a61242b565b9050612426828261264c565b919050565b6000604051905090565b600067ffffffffffffffff8211156124505761244f612784565b5b612459826127b3565b9050602081019050919050565b600081519050919050565b600081519050919050565b600082825260208201905092915050565b600082825260208201905092915050565b600081905092915050565b60006124b4826125ce565b91506124bf836125ce565b9250827fffffffffffffffffffffffffffffffffffffffffffffffffffffffffffffffff038211156124f4576124f36126f7565b5b828201905092915050565b600061250a826125ce565b9150612515836125ce565b92508261252557612524612726565b5b828204905092915050565b600061253b826125ce565b9150612546836125ce565b925082821015612559576125586126f7565b5b828203905092915050565b600061256f826125ae565b9050919050565b60008115159050919050565b60007fffffffff0000000000000000000000000000000000000000000000000000000082169050919050565b600073ffffffffffffffffffffffffffffffffffffffff82169050919050565b6000819050919050565b82818337600083830152505050565b60005b838110156126055780820151818401526020810190506125ea565b83811115612614576000848401525b50505050565b6000600282049050600182168061263257607f821691505b6020821081141561264657612645612755565b5b50919050565b612655826127b3565b810181811067ffffffffffffffff8211171561267457612673612784565b5b80604052505050565b6000612688826125ce565b91507fffffffffffffffffffffffffffffffffffffffffffffffffffffffffffffffff8214156126bb576126ba6126f7565b5b600182019050919050565b60006126d1826125ce565b91506126dc836125ce565b9250826126ec576126eb612726565b5b828206905092915050565b7f4e487b7100000000000000000000000000000000000000000000000000000000600052601160045260246000fd5b7f4e487b7100000000000000000000000000000000000000000000000000000000600052601260045260246000fd5b7f4e487b7100000000000000000000000000000000000000000000000000000000600052602260045260246000fd5b7f4e487b7100000000000000000000000000000000000000000000000000000000600052604160045260246000fd5b6000601f19601f8301169050919050565b7f4552433732313a207472616e7366657220746f206e6f6e20455243373231526560008201527f63656976657220696d706c656d656e7465720000000000000000000000000000602082015250565b7f4552433732313a207472616e736665722066726f6d20696e636f72726563742060008201527f6f776e6572000000000000000000000000000000000000000000000000000000602082015250565b7f4552433732313a20746f6b656e20616c7265616479206d696e74656400000000600082015250565b7f4552433732313a207472616e7366657220746f20746865207a65726f2061646460008201527f7265737300000000000000000000000000000000000000000000000000000000602082015250565b7f4552433732313a20617070726f766520746f2063616c6c657200000000000000600082015250565b7f4552433732313a206f70657261746f7220717565727920666f72206e6f6e657860008201527f697374656e7420746f6b656e0000000000000000000000000000000000000000602082015250565b7f4552433732313a20617070726f76652063616c6c6572206973206e6f74206f7760008201527f6e6572206e6f7220617070726f76656420666f7220616c6c0000000000000000602082015250565b7f4552433732313a2062616c616e636520717565727920666f7220746865207a6560008201527f726f206164647265737300000000000000000000000000000000000000000000602082015250565b7f4552433732313a206f776e657220717565727920666f72206e6f6e657869737460008201527f656e7420746f6b656e0000000000000000000000000000000000000000000000602082015250565b7f45524337323155524953746f726167653a2055524920736574206f66206e6f6e60008201527f6578697374656e7420746f6b656e000000000000000000000000000000000000602082015250565b7f4552433732313a206d696e7420746f20746865207a65726f2061646472657373600082015250565b7f45524337323155524953746f726167653a2055524920717565727920666f722060008201527f6e6f6e6578697374656e7420746f6b656e000000000000000000000000000000602082015250565b7f4552433732313a20617070726f76656420717565727920666f72206e6f6e657860008201527f697374656e7420746f6b656e0000000000000000000000000000000000000000602082015250565b7f4552433732314d657461646174613a2055524920717565727920666f72206e6f60008201527f6e6578697374656e7420746f6b656e0000000000000000000000000000000000602082015250565b7f4552433732313a20617070726f76616c20746f2063757272656e74206f776e6560008201527f7200000000000000000000000000000000000000000000000000000000000000602082015250565b7f4552433732313a207472616e736665722063616c6c6572206973206e6f74206f60008201527f776e6572206e6f7220617070726f766564000000000000000000000000000000602082015250565b612c4b81612564565b8114612c5657600080fd5b50565b612c6281612576565b8114612c6d57600080fd5b50565b612c7981612582565b8114612c8457600080fd5b50565b612c90816125ce565b8114612c9b57600080fd5b5056fe416e204e465420772f20494420257320686173206265656e206d696e74656420746f202573646174613a6170706c69636174696f6e2f6a736f6e3b6261736536342c65776f6749434167496d3568625755694f6941695647397565534254644746796179497343694167494341695a47567a59334a7063485270623234694f69416953584a7662694274595734754946526f5a53423162485270625746305a53427a59574e7961575a70593255754969774b4943416749434a706257466e5a53493649434a6f64485277637a6f764c324a685a6e6c695a576c6863584674613278306357313461445635596d4635596e6c32645846774e3256775a574e6e4d33463662324d3359326472593278344e6d35784d7a566d645778355a574a784c6d6c775a6e4d755a48646c59693573615735724c335276626e6b7463335268636d7375616e426e49677039a2646970667358221220144a04b728c72d7ddfafd007dc18692919d2dc294f70a5135ff21890b959331664736f6c63430008040033",
  "linkReferences": {},
  "deployedLinkReferences": {}
}